{
  "contractName": "CryptoDoggies",
  "abi": [
    {
      "constant": true,
      "inputs": [],
      "name": "age",
      "outputs": [
        {
          "internalType": "uint256",
          "name": "",
          "type": "uint256"
        }
      ],
      "payable": false,
      "stateMutability": "view",
      "type": "function"
    }
  ],
  "bytecode": "0x6080604052348015600f57600080fd5b5060a18061001e6000396000f3fe6080604052348015600f57600080fd5b50600436106045576000357c010000000000000000000000000000000000000000000000000000000090048063262a9dff14604a575b600080fd5b60506066565b6040518082815260200191505060405180910390f35b6000548156fea265627a7a723158208b853f9af544135a05356a1c19c824c6b8692bf8dafb6e1852b3666fce0cd3ff64736f6c63430005110032",
  "source": "pragma solidity ^0.5.0;\nimport \"./AccessControl.sol\";\nimport \"./SafeMath.sol\";\n\ncontract CryptoDoggies{\n\n    // uin\n    uint256 public age;\n    // struct Doggy{\n    //     uint age;\n    //     string name;\n    //     string dna;\n    // }   \n\n    // Doggy doggy1 = Doggy({\n    //     age:age\n    // });\n}",
  "sourcePath": "/home/goodness/Development/NFTs/cryptodoggies/src/contracts/CryptoDoggies.sol",
  "compiler": {
    "name": "solc",
    "version": "0.5.17+commit.d19bba13.Emscripten.clang"
  },
  "schemaVersion": "3.0.23",
  "updatedAt": "2020-06-16T15:49:27.846Z",
  "devdoc": {
    "methods": {}
  },
  "userdoc": {
    "methods": {}
  }
}